:020000022000DC
:107000000000042009730200317302003373020090
:10701000357302003773020039730200000000006C
:107020000000000000000000000000003B730200B0
:107030003D730200000000003F7302004173020034
:10704000998C020043730200E99502004373020029
:107050004373020043730200D9900200437302009D
:107060004373020043730200437302004373020040
:107070004373020043730200437302004373020030
:10708000437302001583020043730200437302003E
:107090004373020043730200CDC502004373020034
:1070A0004373020043730200437302004373020000
:1070B0004373020043730200000000000000000060
:1070C00043730200437302004373020043730200E0
:1070D00043730200437302004373020043730200D0
:1070E0004373020043730200437302000000000078
:1070F0000000000043730200000000004373020020
:10710000000000000000000000000000000000007F
:10711000000000000000000000000000000000006F
:10712000000000000000000000000000000000005F
:10713000000000000000000000000000000000004F
:10714000000000000000000000000000000000003F
:10715000000000000000000000000000000000002F
:10716000000000000000000000000000000000001F
:10717000000000000000000000000000000000000F
:1071800000000000000000000000000000000000FF
:1071900000000000000000000000000000000000EF
:1071A00000000000000000000000000000000000DF
:1071B00000000000000000000000000000000000CF
:1071C00000000000000000000000000000000000BF
:1071D00000000000000000000000000000000000AF
:1071E000000000000000000000000000000000009F
:1071F000000000000000000000000000000000008F
:107200000348044B834202D0034B03B11847704735
:10721000182C0020182C0020000000000548064B08
:107220001B1AD90F01EBA301491002D0034B03B184
:1072300018477047182C0020182C00200000000070
:1072400010B5064C237843B9FFF7DAFF044B13B1AE
:107250000448AFF300800123237010BD182C0020D8
:107260000000000084DB020008B5054B1BB1054996
:107270000548AFF30080BDE80840FFF7CFBF00BF6F
:10728000000000001C2C002084DB0200A3F5803AE3
:10729000704700BF174B002B08BF134B9D46FFF7ED
:1072A000F5FF00218B460F461348144A121A06F0C8
:1072B0004BF80E4B002B00D098470D4B002B00D005
:1072C00098470020002104000D000D48002802D03E
:1072D0000C48AFF3008005F079FA2000290003F094
:1072E00063FC05F061FA00BF000008000000000028
:1072F0000000000000000420182C0020E8370020C7
:1073000000000000000000000649074A074B9B1AD6
:1073100003DD043BC858D050FBDC01F077F9FFF7E0
:10732000B9FF0000F0DB0200E82A0020182C002042
:10733000FEE7FEE7FEE7FEE7FEE7FEE7FEE7FEE725
:10734000FEE7FEE738B5174B1D783DB3164A1168C6
:10735000C0B200230C4604E00133AB4204F1080440
:107360001CD011F833209042F6D101F0A5FE6378CD
:10737000A3F10103B3FA83F35B09834200D038BD64
:107380000A4AD2E900321343F9D1094B0948196876
:107390000022BDE83840490800F032BC00231B78C9
:1073A000FFDE00BF342C0020682C0020402C002081
:1073B000382C0020E82A00202DE9F04FDFF8608209
:1073C00098F8003083B0002B00F01F810025DFF813
:1073D00054928F4F8F4E4FF0010AAB463D6815F81F
:1073E0003B0001F069FE15F83B4005EBCB05620858
:1073F0006B78B15CA3F10103B3FA83F314F0010CD1
:107400004FEA531300F0A4800D09042D47D8DFE89C
:1074100005F0745469640300834200F0E680BCF117
:10742000000F00F0E0800F2398F800500B40B35499
:1074300095B138680023024603E0AB4202F108022E
:107440000AD010F83310A14203F10103F5D15368BB
:1074500013B10021204698474FF000030DF10700BB
:107460008DF8073000F0D2FDA4F12003C4F1200212
:107470002AFA02F20AFA03F31343D9F800209DF81E
:1074800007000AFA04F422EA0402C9F80020D9F835
:10749000042022EA0302C9F8042000F0DDFD98F878
:1074A00000200BF1010B934598DBD9E9003213431F
:1074B00040F0A18003B0BDE8F08F1B1AB3FA83F34C
:1074C0005B095B010F2008400343B35498F8002088
:1074D0000BF1010B934581DBE7E78342DFD00F20FF
:1074E000402347E0834240F08380BCF1000F15BF8A
:1074F0000F20F0203023032355E08342CFD10F200B
:10750000102301400B43B3540DF107004FF000036B
:107510008DF8073000F07AFDA4F12003C4F12002B9
:107520002AFA02F20AFA03F31343D9F800209DF86D
:1075300007000AFA04F42243C9F80020D9F804200D
:107540001A43C9F8042000F087FD98F80020BFE72F
:1075500001F00F05042DA2D8DFE805F0121708038B
:107560001E0083429BD0F020042303E0834218D006
:10757000F020012301400B43B35498F80020A7E703
:1075800083428CD1F0200123BBE71B1AB3FA83F3AB
:107590005B095B00F02096E7834224D1F0200323AF
:1075A000E8E7F020032301400B43B35498F8002090
:1075B000002A3FF47AAF3D680023294603E0934256
:1075C00001F1080184D015F83300A04203F1010352
:1075D000F5D14B68002B3FF47BAF20460121984743
:1075E00098F8002074E7F0231EE70F203023C1E74E
:1075F0000F201023BEE7084B0848196800224908ED
:1076000003B0BDE8F04F00F0FBBADFF818904CE78C
:10761000682C0020482C0020382C0020E82A00206C
:10762000342C0020402C0020092A3FD9F0B583B02B
:10763000144605460E4601F0BBFB88B3204B214A99
:107640001E70214B1560002120481C60202205F08F
:107650007BFE1F4B00200021741EC3E90001E4B231
:1076600036B31C4F05EBC404032602E0A5421FD02D
:107670001C469DF8063094F802C020788DF804600E
:1076800023F007033A4601A98DF806308DF805C0AE
:1076900001F098FBA4F108030028E7D003B0F0BD87
:1076A00001F032FB0028C9D003B0F0BD07207047BD
:1076B000094A0A48002103B0BDE8F04000F088BA4A
:1076C000342C0020682C0020382C0020482C00206E
:1076D000402C002045730200B97302003CDA02001E
:1076E00070B5084D2B785BB1074E0024336801213B
:1076F00013F8340001F068FC2B780134A342F5D86C
:10770000002070BD342C0020682C002000B585B00E
:107710000346002101AA44F20100CDE901110393BF
:1077200000F004F805B05DF804FB00BF72B6094B29
:10773000D3F8F030DB0700D500BEBFF34F8F05490B
:10774000054BCA6802F4E0621343CB60BFF34F8F6E
:1077500000BFFDE700ED00E00400FA0559B142B1B9
:10776000531E1A4005D1826001608380C2601046BA
:107770007047092070470E20704700BF10B484681E
:10778000C26803468088121B904203D204205DF831
:10779000044B7047DC681A6820401154DA680132E3
:1077A000DA6000205DF8044B704700BF0346806834
:1077B000DA6890420DD010B49C689A88186822400C
:1077C000825C0A709A6801329A6000205DF8044B6E
:1077D00070470520704700BF30B48D688468C26868
:1077E000CB68A54293412CBF0120002030BC7047DC
:1077F00010B5044682B000230DF107008DF8073064
:1078000000F004FC23692BB94FF0FF324FF0FF3337
:10781000C4E902239DF8070000F01EFCD4E90530FE
:10782000984700230DF107008DF8073000F0EEFBBC
:107830002369BBB1D4E90212B2F1FF3F08BFB1F135
:10784000FF3F0FD05B1842F10002C4E902329DF8FD
:10785000070000F001FC0748214600F093FE0120DC
:1078600002B010BD9DF8070000F0F6FB002002B04A
:1078700010BD00BF44DA02002DE9F04F2DED028B60
:1078800083B008EE100A00F003FD40B1AC4AD2E923
:10789000003113F1807341F10001C2E9003118EEAB
:1078A000100A002100F010FDA64D60B32B6853B301
:1078B000A54B2C681B7823B31CB3A44800F014FD1F
:1078C0009F4BA34A19685B684018D2E9001243F144
:1078D0000003884273EB020203D210F1807043F17F
:1078E0000003D4E902128842934180F02581B2F16D
:1078F000FF3F08BFB1F1FF3F03D09648214600F09B
:1079000041FE00232B6018EE100A012100F0DCFC80
:10791000002840F0F180904801A900F05FFD0028A8
:107920003AD08D4C4FF0FF384FF0FF3909E033B3B8
:1079300001A9204600F084FD01A9204600F04EFD7B
:1079400050B30378012B11D0022BF0D1814E304679
:1079500000F02CFE30B1C0E90289304600F026FE6E
:107960000028F8D1784B01221A70E1E72B684168B2
:10797000994200F0B580774800F022FED8E74168D0
:10798000D1E90223B3F1FF3F08BFB2F1FF3FCFD0EF
:10799000704800F0F7FDCBE76E4FDFF8B081DFF8FD
:1079A000A091384600F008FE002852D0D0E902230A
:1079B000B3F1FF3F08BFB2F1FF3F00F08D802968AF
:1079C00091B12968D1E9020182428B4144D22B68EE
:1079D000D3E90223B3F1FF3F08BFB2F1FF3F03D069
:1079E0002968384600F0CEFD384600F0DFFD044639
:1079F0004046D4E902BA00F077FCD9E90013544EAE
:107A00004018D6E9002143F10003904273EB0101D5
:107A100003D210F1807043F10003BBEB00006AEB6E
:107A20000302012872F1000224DBB0F5350F4DD2BC
:107A30005A464FF496030021404600F09FFB80B168
:107A40000D281BD0002338462B6000F0B5FD002820
:107A5000ACD12B68002B66D003B0BDEC028BBDE827
:107A6000F08F2B68002B3ED02C6003B0BDEC028B56
:107A7000BDE8F08F0021404600F01AFC324B1B7825
:107A8000002BDFD0404600F02FFCD9F80030D6E9BB
:107A90000012C018D9F8043043F10003884273EB98
:107AA000020203D210F1807043F10003D4E9021204
:107AB000884293411CD2B2F1FF3F08BFB1F1FF3FB2
:107AC000C0D02146384600F05DFDBBE7404600F0DF
:107AD0000BFC224A0244ACE7384600F067FD60E741
:107AE00000232B6024E718EE100A00F015FBBBE71B
:107AF0002046FFF77DFEA5E71448154E00F0F4FB85
:107B00000F4B1A685B688018D6E9001243F1000336
:107B1000884273EB020203D210F1807043F100033C
:107B2000C6E90003F7E618EE100A03B0BDEC028BBD
:107B3000BDE8F04F00F0F4BA2046FFF759FEE0E64A
:107B4000702C0020F02C0020782C0020082B002026
:107B5000E82C002044DA0200D42C0020FFFFB400FF
:107B600010B5134B13491C68134882B008235822E0
:107B7000019400F0D9FB044610B1204602B010BDBC
:107B80000E4A0F4801A900F07FFA04460028F4D1FC
:107B90000B48012100F072FB01231946094A0848ED
:107BA00000F0C2FA084B012220461A7002B010BD44
:107BB00040DA02007C2C0020D42C002079780200CE
:107BC000082B0020FFFF7F00782C00200000000021
:107BD0006AB19FED097BA1F101010368B1FA81F15E
:107BE000490983ED027BC3E9041200207047072096
:107BF000704700BFAFF30080FFFFFFFFFFFFFFFFF5
:107C0000F0B583B00446002501A817460E468DF84E
:107C1000045000F0FBF9D4E90223B3F1FF3F08BFA1
:107C2000B2F1FF3F06D09DF8040000F015FA284697
:107C300003B0F0BD1C4800F057FB1C4B1C4A1968F0
:107C40005B684018D2E9001243F10003884273EBED
:107C5000020224D3301843F10003A060E3609DF8D2
:107C6000040000F0F9F92369A76103B12661114806
:107C700001A900F071FB034670B100250D481D708D
:107C80005C6001A900F09AFB0028D1D0064800F002
:107C90002FFB284603B0F0BD042003B0F0BD10F167
:107CA000807043F10003D5E7082B0020702C0020E2
:107CB000E82C0020D42C002030B583B004460025E9
:107CC00001A88DF8045000F0A1F9D4E90223B3F122
:107CD000FF3F08BFB2F1FF3F1CD04FF0FF334FF022
:107CE000FF32C4E902239DF8040000F0B5F9104802
:107CF00001A900F031FB034648B10122027001A93D
:107D00000B485C6000F05AFB58B903B030BD04204A
:107D100003B030BD9DF8040000F09EF9284603B082
:107D200030BD044800F0E4FA284603B030BD00BF7F
:107D3000D42C0020082B002030B50478012C83B00F
:107D400004D0022C2DD0ECB103B030BD037A002B4F
:107D50003CD04368364D19782846FFF70FFD0028C0
:107D600055D0344B01901B688DF800406846984709
:107D7000A968EB68AA885B1A9A4227D22E4B012287
:107D80001A70E1E72D492E48FFF710FD00282DD08D
:107D9000284B03221B688DF800206846984703B0E3
:107DA00030BD284B284D1A78C168AA5C01918DF826
:107DB00000402649AAB9012203F10C0001F094FE0B
:107DC0001C4B68461B68984703B030BD1D4B1E4ACC
:107DD0001B781E49D35C0122ABB11D4802F064F947
:107DE000B2E70122181D02F05FF9E9E71548164ACB
:107DF00003781249D35C0122A3B1043003B0BDE87B
:107E0000304002F0EBB8134801F06EFE9CE7AA6820
:107E1000EB689A42ACD0074B8DF800001B686846AF
:107E20009847A5E70C3003B0BDE8304001F0E4BD51
:107E3000F82C0020F42C0020082D0020202D0020FC
:107E40000C2D0020102B0020702D00201C2D002058
:107E5000142B00201C2B00202DE9F0412F4E88B060
:107E60003260002951D08A8804460E462C480968A1
:107E70001D46FFF773FC10B108B0BDE8F081B28970
:107E8000B1682848FFF76AFC0028F5D194F810E0A3
:107E9000637C254E254FBEF1000E18BF4FF0010E3A
:107EA000002B0FCEEC46ACE80F006368009323680C
:107EB0000193E3680293A368039396E80F0018BF49
:107EC0004FF00E088CE80F0008BF4FF00008636900
:107ED000174A0693694638468DF814E08DF81C5011
:107EE0008DF8158000F068FE0028C5D12368114A7E
:107EF00001331070C0D0104A3B781049D35C012286
:107F00003BB1381D02F0D0F8B6E7072008B0BDE855
:107F1000F08107F10C0001F0E7FDADE7F42C002043
:107F2000F82C00200C2D002050DA0200102B00202D
:107F3000397D0200082D0020702D00201C2D00200E
:107F400070B5104D014610482E78FFF72FFC0446FF
:107F50000EB9204670BD0D480D490378CB5C0D4924
:107F600000222A70012243B1043002F09DF800285B
:107F7000EFD0FFF7CBFB204670BD0C3001F0B4FD15
:107F8000F5E700BF082D0020F82C0020102B002062
:107F9000702D00201C2D002070B501461548FFF7FC
:107FA000EDFB044608B1204670BD134D134E2B78EF
:107FB000F35CA3B1281D02F069F80028F3D1104941
:107FC0000C48FFF7F3FB0028EDD12B780C49F35C4C
:107FD00053B1BDE870400B48012201F0FFBF05F12D
:107FE0000C0001F075FDE8E7BDE87040064801228D
:107FF00001F002BD0C2D0020102B0020702D002060
:10800000202D0020142B00201C2B002070B4EFF337
:10801000108472B60D4A9368ABB9012191600C4986
:108020000C4ED1F8805035401560C1F88060D1F811
:10803000845055604FF0FF32C1F88420037004B9BA
:1080400062B670BC70470123F8E700BF242D002002
:1080500000E100E0FC06FFBD094B9A687AB170B9F7
:1080600010B4EFF3108172B6064A1C6814605C68A5
:108070005460986001B962B65DF8044B7047704770
:10808000242D002000E100E010B41F4C437944F897
:1080900023201E4C04EBC3031B798BBB03680A88A7
:1080A000C3F8082590F904308A78002B20DB03F10F
:1080B0006043520103F56143D2B283F8002390F983
:1080C0000430002B09DB12494FEA531C012203F054
:1080D0001F0302FA03F341F82C30437904EBC30287
:1080E000012144F83300117100205DF8044B704702
:1080F000084903F00F0352011944D2B20A76DEE7B1
:1081000008205DF8044B7047382D0020302D0020EA
:1081100000E100E0FCEC00E0036801221A60704717
:10812000036801225A60704770B405684FF48034C8
:108130008C40C5F80843056801F1500CC5F8484368
:108140004FEA8C0C05681FFA8CFC002645F80C6081
:1081500083B055F80C500195019D056801F5A87193
:1081600022F07F4245F821200268C2F8444313B14F
:108170000368C3F8044303B070BC70472DE9F047AF
:108180004FF4803722F07F4802688F40C2F848736E
:108190000268C2F808730268044602EB810001F12C
:1081A00050060D46D2F80415D0F84025C0F8401509
:1081B000B600B6B2521A21684FF0000941F8069095
:1081C00082B08959009122F07F42012A00999A4693
:1081D00045D02268D2F80465C2F84473A8EB0602C1
:1081E00022F07F42012A05F5A87527D0226842F8BF
:1081F00025802168D1F80405A8EB0002CAF1FF131D
:10820000013A03F57F4322F07F42934212D342B1F9
:10821000C1F8447323680020C3F8047302B0BDE8BA
:10822000F08708F1010341F825302168D1F80435C1
:108230009842EDD00D2002B0BDE8F087236808F128
:10824000010243F825200C4B4FF4806043F00103FA
:1082500098472168D1F804359E42D9D0EAE7064A0A
:108260004FF4806042F001029047226842F8069085
:1082700092590192019AACE770DA02000268022377
:10828000C2F8443311B10268C2F80433704700BF2A
:108290000368D3F8040100B97047002282B0C3F824
:1082A0000421D3F804310193019B012002B07047EF
:1082B00002684FF4803303FA01F1C2F848130368EF
:1082C000C3F80813704700BF50318900036889B2B2
:1082D000585800B9704700225A5082B05B58019339
:1082E000019B012002B070470368D3F80405704772
:1082F00090F90430002B09DB5A09054803F01F03ED
:108300000121403201FA03F340F82230704700BFE8
:1083100000E100E0024A034B10681B68184700BFE9
:10832000302D0020382D002099B110B4B2FBF3F4A9
:1083300003FB1424A4B244B9C0E900148460828110
:10834000C38120465DF8044B704709205DF8044B5B
:1083500070470E20704700BF10B483B050E8013F53
:108360001FFA83FCC489A4448489A44528BFACEBCC
:10837000040C0489A44502BFBFF32F8F002207E03D
:10838000CCEA030C40E801C4002CE7D14FF0010215
:108390008DF803200193019C9DF803200C6032B1FD
:1083A000006810FA84F003B05DF8044B704702F0E7
:1083B000FF03184603B05DF8044B70470A884B88EA
:1083C0009A4201D00020704750E8012FC2EA0242D1
:1083D00040E80123002BF7D10120704710B483B08F
:1083E00050E8023F1FFAA3FCC488A44502BFBFF3B4
:1083F0002F8F00220EE0C489A4448489A44528BF9D
:10840000ACEB040CC3EA0C4C40E802C4002CE7D1EE
:108410004FF001028DF803200193019C9DF8032089
:108420000C6032B1006800EB144003B05DF8044BFF
:10843000704702F0FF03184603B05DF8044B704725
:108440000A884B889A4201D00020704750E8022FDA
:10845000C2EA224240E80223002BF7D101207047F4
:108460004B0901F01F024FF0010C0CFA02F100EB76
:10847000830000F017B800BF01F01F02012303FAC8
:1084800002F24B0900EB8300D14300F017B800BFA4
:108490004B0901F01F0150F82300C84000F0010013
:1084A000704700BF034653E8002F42EA010043E84B
:1084B000000C9CF0000FF6D1704700BF034653E854
:1084C000002F02EA010043E8000C9CF0000FF6D1F7
:1084D000704700BF41DF7047064A074B10B50024C4
:1084E00014701C60BFF35F8F0449054800F034F836
:1084F000204610BD442D0020482D002078DA0200CF
:108500003C2D002000B583B000230DF107008DF84D
:108510000730FFF77BFDF1EE103A23F09F03E1EE09
:10852000103ABFF35F8F0B4B4022C3F884219DF8B4
:108530000700FFF791FD04F043F828B920BF40BFC2
:1085400020BF03B05DF804FB03B05DF804EBFFF758
:10855000C1BF00BF00E100E001600B6843604A68F2
:10856000934208BF00234360704700BF436843B194
:10857000026891680B4443605268934204BF002331
:108580004360704770B54468064620680D4618B9C8
:1085900008E02468206828B1B36829469847002875
:1085A000F7D120682860256070BD00BF4368186857
:1085B00008B102681A60704743681868704700BFC6
:1085C0004368186818B908E00346006828B181427A
:1085D000FAD10A681A6001207047704770B5161EFC
:1085E00007DD0C468D1914F8010BFFF7D5FCA542E9
:1085F000F9D1304670BD00BF10B50C462046FFF7DC
:108600009FFC0528FAD0012010BD00BF10B44FF028
:108610008053D3F83021082A23D0844AD2F88830F6
:1086200043F47003C2F88830BFF34F8FBFF36F8FEE
:108630004FF08053D3F83021082A00F0B3804FF078
:108640001023D3F80022002AC0F2BF80D3F80432EE
:10865000002BC0F2BA80764B764A1A605DF8044B64
:1086600070474FF080410020C1F80C01724AC1F8F8
:108670001001C1F83805D3F80414C2F82015D3F856
:108680000814C2F82415D3F80C14C2F82815D3F82E
:108690001014C2F82C15D3F81414C2F83015D3F8FE
:1086A0001814C2F83415D3F81C14C2F84015D3F8C6
:1086B0002014C2F84415D3F82414C2F84815D3F88E
:1086C0002814C2F84C15D3F82C14C2F85015D3F85E
:1086D0003014C2F85415D3F83414C2F86015D3F826
:1086E0003814C2F86415D3F83C14C2F86815D3F8EE
:1086F0004014C2F86C15D3F83411D3F84434C2F8DE
:108700007035052942D84D4B5B5C1BB14C4B4D4A33
:10871000C3F88C264C4B5B5C73B14FF080534B49D4
:10872000D3F83021FB20C1F81805082AD3F83411FA
:108730007FF473AF052929D8454B5B5CBBB14FF083
:1087400080524FF08040D2F85832D0F8E41ED2F870
:10875000304121F00F0103F00F030B43C0F8E43E5A
:10876000082CD2F834117FF458AF05290ED8394BB4
:108770005B5C5BB14FF08053374AD3F830314FF434
:108780000071082BC2F840167FF447AF4FF08043CA
:10879000D3F80024D2077FF540AF6FF00102C3F891
:1087A00000243AE7D3F83431052B08D94FF01022D2
:1087B0004FF08043D2F80822C3F858253FE7274AF4
:1087C000D35C002B3FF43BAFF0E7254A0123C2F80E
:1087D0000435D2F80034002BFBD04FF010231221C7
:1087E0001F4AC3F80012D2F80034002BFBD04FF020
:1087F000102312211A4AC3F80412D2F80034002BB5
:10880000FBD000231649C2F80435D1F80034002B00
:10881000FBD0BFF34F8F0549124BCA6802F4E062E8
:108820001343CB60BFF34F8F00BFFDE700ED00E0C7
:10883000242B00200090D00300C000408CDA0200FE
:1088400000500040488103008CDA020000F0004034
:108850008CDA02008CDA02000090024084DA020016
:1088600000E001400400FA05074B1B5C1F2B8ABF88
:10887000064A4FF0A04203F01F03D2F80405D84087
:10888000C04300F00100704798DA02000003005076
:10889000064B1A5C1F2A86BF054902F01F024FF0E3
:1088A000A04101239340C1F80C35704798DA0200CB
:1088B00000030050064B1A5C1F2A86BF054902F0D0
:1088C0001F024FF0A04101239340C1F808357047C3
:1088D00098DA0200000300504FF0A04310B44FF4A8
:1088E00080404FF400544FF400414FF48032C3F8FD
:1088F0000845C3F80805C3F80815C3F808255DF84E
:10890000044B70474FF0A04310B44FF480404FF435
:1089100000544FF400414FF48032C3F80C45C3F8C3
:108920000C05C3F80C15C3F80C255DF8044B704713
:108930000A4B185C1F288ABF09494FF0A04100F07C
:108940001F00D1F804350122824022EA03001340BF
:10895000C1F80805C1F80C35704700BF98DA02006D
:1089600000030050074B1B5C1F2B8ABF064A4FF0C9
:10897000A04203F01F03D2F81005D840C04300F016
:108980000100704794DA0200000300500B2809D060
:108990000C2809D0182809D019280CBF03204FF043
:1089A000FF30704700207047012070470220704759
:1089B000014B185C704700BF94DA0200C20710B484
:1089C0000FD483070AD54FF0A0430C22C3F82C27FD
:1089D000C3F83027C3F86027C3F864275DF8044B59
:1089E00070474FF0A04303224FF40051C3F83427DF
:1089F0004FF48044C3F83827C3F83C27C3F8402716
:108A0000C3F808154FF480324FF40041C3F808450D
:108A1000C3F80815C3F80825D3E700BF10B568B937
:108A20000E4CA368012262703BB1D3E90023002001
:108A3000A2609847A368002BF7D110BD0128FCD194
:108A4000064C2369A070002BF7D0D3E90023012046
:108A5000226198472369002BF7D110BD4C2D0020CF
:108A600070B910B5074CA368012262703BB1D3E91D
:108A700000230020A2609847A368002BF7D110BD07
:108A8000704700BF4C2D002030B5012883B004D0C2
:108A9000032821D0B0B103B030BD294C00230DF123
:108AA00007008DF80730FFF7B1FA23786BB3E3685E
:108AB0009DF8070001221344E360A270FFF7CCFA8F
:108AC00003B030BD1F4B0122C3F88020BFF34F8F8E
:108AD000BFF36F8F03B030BD194C00F0B5F8002321
:108AE0000DF107008DF80730FFF790FAE368013BBE
:108AF000E360E3681BB9144BD3F80054C5B19DF88B
:108B00000700FFF7A9FA03B030BD10486360A36007
:108B10002361E36000F08CF803F052FD60B10A4A73
:108B200001232370D2F80024002AC0D0A370BEE72E
:108B300000F09CF8A570E2E700F086F8EFE700BFD0
:108B40004C2D002000E100E0000001401D8A0200E1
:108B500030B50A4B0A4C53F8213054F821100278F2
:108B600085B0D0E901548DF80020C26801958DF8D8
:108B7000084003926846984705B030BD682D002034
:108B8000602D002030B50A4B0A4C53F8213054F8C0
:108B90002110027885B0D0E901548DF80020C26818
:108BA00001958DF8084003926846984705B030BD9E
:108BB000682D0020602D0020F0B5184B067843F892
:108BC0002620174B0446487F98551546154A8E4671
:108BD000096942F8261022789F5CBEE80F0089B030
:108BE000EC46ACE80F009EE80F008CE80F000496FE
:108BF0004FB1002D0C4A694608BF2A46201D01F0DE
:108C0000DFF809B0F0BD002D084A694608BF2A46C2
:108C100004F10C0000F0FCFD09B0F0BD682D00204F
:108C2000702D0020602D0020518B0200858B0200EA
:108C3000044A137923B901211060918018467047C6
:108C400085207047742D0020074B1A68D20704D482
:108C5000C02283F8002301221A604FF080430122D2
:108C6000C3F81825704700BF00E100E04FF08042D4
:108C700002210023C2F8081382B0C2F80431D2F8EE
:108C80000431019301230199D360D2F81834DB0336
:108C9000FBD402B0704700BF10B54FF0804382B0E4
:108CA000D3F8002162B10021164AC3F80011D3F8AD
:108CB0000011507900910121009CC3F80813A8B15C
:108CC0004FF08043D3F80421CAB10022C3F8042135
:108CD000D3F80421019202210A4A0198C3F808132B
:108CE0001368012002B0BDE81040184713685171A5
:108CF00098474FF08043D3F80421002AE5D102B011
:108D000010BD00BF742D002030B5254C94F86A309A
:108D100083B0002B40D14FF6FF704FF0FF0C5A0983
:108D2000012A03F01F0114BF4FF0FF320246CA4070
:108D3000D20748BFE21803F1010348BF82F830C0F0
:108D4000302BECD14FF0FF3306220021154823666B
:108D5000C4E90033C4E90233C4E90433C4E9063387
:108D6000C4E90833C4E90A3304F0EEFA0E4BC0221A
:108D700083F8062340221A600C4B0020C3F87C01C4
:108D8000D3F87C21019201214FF00042019D84F82B
:108D90006A10C3F8042300E0082003B030BD00BF10
:108DA0007C2D0020E02D002000E100E0006000406C
:108DB000034B93F86A00003818BF0120704700BFCA
:108DC0007C2D002070B57D4B03EB000E9EF930C06A
:108DD000BCF1000F01DB082070BD91F802C01CF04F
:108DE000020FCCF340055DD11C6A013400F0DF8036
:108DF0005C6A013400F0D1804FF00C0E4FF00A0C89
:108E000053F82C40013459D00CF10104744547D279
:108E100053F82460013600F0B8800CF10204744568
:108E20003ED253F82460013600F0AF800CF1030607
:108E3000764535D253F8264001343ED00CF1040675
:108E400076452DD253F82640013436D00CF1050674
:108E5000764525D253F8264001342ED00CF1060673
:108E600076451DD253F82640013426D00CF1070672
:108E7000764515D253F8264001341ED00CF1080671
:108E800076450DD253F82640013416D00CF1090C6A
:108E9000F44505D2DC6A013408BF4FF00B0C0DD04D
:108EA000042070BD1C68013471D05C6801347BD033
:108EB0004FF0080E4FF0020CA2E7B44643F82C2006
:108EC0001A184FFA8CFE82F830E015B99C448CF8E1
:108ED00058008A7854071CD4D50747D51F2887BF68
:108EE000374A00F01F0404464FF0A04202EB840210
:108EF000D2F8004724F00204C2F80047314DC408FC
:108F000000F0070C2E5D012202FA0CF232432A55C2
:108F10008A7812F002021CD04FEA8E0303F18043DC
:108F200003F5C0430978D3F8104524F44F3424F4F2
:108F30004074C3F8104502020904D3F8100501F487
:108F4000403102F47C520A430243C3F8102500204A
:108F500070BDAEF1080E43FA8EFE09789EF86030BF
:108F600043EA81138EF86030104670BD1F284C789C
:108F700087BF134D00F01F0202464FF0A04502F5D7
:108F8000E072A40045F82240B8E7A44696E71A60CC
:108F900000228EF8302096469BE74FF0090C8EF8A1
:108FA00030C05A62E64691E74FF0010C86E74FF079
:108FB000080C8EF830C01A62E64687E77C2D002048
:108FC00000030050E02D002030B4384C04EB000CBE
:108FD00082B09CF93030072B12DD083B44FA83F352
:108FE00093F860309B09032B35D0012B0CBF4FF455
:108FF00000324FF440321F284AD84FF0A04337E0E8
:10900000DAB2072A24D8980000F1804003F1400228
:1090100000F5C04052B29200D0F8105592B202F161
:10902000804202F5C04245F00105C0F8105500200D
:10903000106012680192019A51B19CF9302054F8E5
:1090400022202AB11A49012202FA03F3C1F804339B
:1090500002B030BC70471F281DD9164BD3F810251D
:1090600000F01F00C24002F0010202321204114B54
:1090700003EB8003D3F8001721F44031C3F8001745
:10908000D3F800170A43C3F8002702B030BC70477A
:1090900000F01F00EBE74FF0A0421346D2F8102576
:1090A000C24002F0010202321204E1E77C2D0020EE
:1090B00000600040000300501F288ABF054B4FF09E
:1090C000A04300F01F00D3F8103523FA00F000F0A1
:1090D00001007047000300502DE9F047002384B0E1
:1090E000CDE902331C4AD2F80011012900F0308288
:1090F0001E46194BD3F80421012A00F01A82164BA0
:10910000D3F80821012A00F00582134BD3F80C2173
:10911000012A00F0F081104BD3F81021012A00F051
:10912000DB810D4BD3F81421012A00F0C1810A4BD9
:10913000D3F81821012A00F0AC81074BD3F81C2189
:10914000012A0BD0044BD3F87C21012A00F02182A4
:1091500056BB04B0BDE8F08700600040D3F804239C
:109160001206EFD50022C3F81C21D3F81C11009180
:10917000D3F87C110098012946F0800614D1C3F879
:109180007C21D3F87C3101934FF0A042019BD2F8AF
:109190002015CF4B0291C2F82015D3F82025039259
:1091A000C3F8202546F00046CA4F01250024A3003D
:1091B00003F18043354203F5C0434FEA45050BD028
:1091C000D3F8100557F82420D3F81015C0F3052064
:1091D000C1F3014102B190470134082CE7D1002EC0
:1091E000B7DABC4CBA4E01254FF0A04794F96000A5
:1091F000431C48D0C0F3C20202F110030DEB03027E
:1092000000F0070312F8082C05FA03F31A42C1B262
:1092100000F03F0037D01F2800F22B8102464FF0AC
:10922000A04909EB820305FA02F2D3F800C7D3F88C
:1092300000E72EF4403EC3F800E704EB000ECCF349
:10924000014C9EF930E0D3F800A754F82E80BCF111
:10925000020F0CBF4FF4403E4FF4003E4EEA0A0EA0
:10926000C3F800E7C9F82025B8F1000F0BD0890931
:10927000032900F08281BCF1020F00F07B81BCF178
:10928000030F00F0A68194F96100411C48D0C0F39F
:10929000C20202F110030DEB030200F0070312F803
:1092A000082C05FA03F31A42C1B200F03F0037D090
:1092B0001F2800F2E28002464FF0A04909EB82032A
:1092C00005FA02F2D3F800C7D3F800E72EF4403EC7
:1092D000C3F800E704EB000ECCF3014C9EF930E03C
:1092E000D3F800A754F82E80BCF1020F0CBF4FF446
:1092F000403E4FF4003E4EEA0A0EC3F800E7C9F8BC
:109300002025B8F1000F0BD08909032900F03A811C
:10931000BCF1020F00F03381BCF1030F00F05D815E
:1093200094F96200421C48D0C0F3C20202F110035B
:109330000DEB030200F0070312F8082C05FA03F303
:109340001A42C1B200F03F0037D01F2800F29980C6
:1093500002464FF0A04909EB820305FA02F2D3F866
:1093600000C7D3F800E72EF4403EC3F800E704EB53
:10937000000ECCF3014C9EF930E0D3F800A754F86E
:109380002E80BCF1020F0CBF4FF4403E4FF4003E64
:109390004EEA0A0EC3F800E7C9F82025B8F1000F1D
:1093A0000BD08909032900F0F280BCF1020F00F014
:1093B000EB80BCF1030F00F0088194F96300431CBB
:1093C00047D0C0F3C20202F110030DEB030200F01C
:1093D000070312F8082C05FA03F31A42C1B200F091
:1093E0003F0036D01F2850D802464FF0A04909EB65
:1093F000820305FA02F2D3F800C7D3F800E72EF48F
:10940000403EC3F800E704EB000ECCF3014C9EF99C
:1094100030E0D3F800A754F82E80BCF1020F0CBF47
:109420004FF4403E4FF4003E4EEA0A0EC3F800E708
:10943000C9F82025B8F1000F0BD08909032900F0E5
:109440009780BCF1020F00F09080BCF1030F00F098
:10945000B880D7F820350293C7F82035D6F82025F4
:1094600003921343C6F820257FF4C0AE04B0BDE8D4
:10947000F08701F01F02B146D3E601F01F02B146AA
:109480001CE701F01F02B14665E701F01F02B1467B
:10949000ADE7D3F8042351067FF54FAE0022C3F8A1
:1094A0001821D3F818310093009B46F0400644E69B
:1094B000D3F8042390067FF53AAE0022C3F81421B6
:1094C000D3F814310093009B46F020062FE600BF2E
:1094D000000300507C2D0020D3F80423D4067FF530
:1094E00020AE0022C3F81021D3F810310093009B66
:1094F00046F0100615E6D3F8042315077FF50BAEEA
:109500000022C3F80C21D3F80C310093009B46F0E5
:10951000080600E6D3F8042357077FF5F6AD0022CE
:10952000C3F80821D3F808310093009B46F00406E5
:10953000EBE5D3F8042392077FF5E1AD0022C3F8F1
:109540000421D3F804310093009B46F00206D6E5CF
:10955000D2F8046316F001063FF4CBADC2F8003137
:10956000D2F800310093009BC3E501297FF471AF6D
:10957000C0476EE701297FF486AEC04783E6012924
:109580007FF4CEAEC047CBE601297FF416AFC047CB
:1095900013E70022C3F87C21D3F87C3101934FF00C
:1095A000A042019BD2F820150E4B0291C2F8201563
:1095B000D3F820250392C3F82025002E3FF411AEE6
:1095C000F0E502297FF445AFD2E702297FF4F5AE3A
:1095D000DDE702297FF457AECFE702297FF4A0AE82
:1095E000D0E700BF00030050014B1B68184700BFC5
:1095F000E82D0020104B98421BD130B583B00023DA
:109600000DF107008DF807300D46FEF7FFFC0B4B00
:109610009DF807001C793CB901221D601A71FEF704
:109620001BFD204603B030BDFEF716FD112003B030
:1096300030BD0020704700BF00200040E82D002012
:1096400010B5714AD2F8043399058AB068D5D2F8BA
:109650002431002B64D00023C2F82431D2F8243105
:1096600001934FF40171694B0198C2F8081393F804
:10967000291009B901215160634902228DF818208F
:10968000D1F88024C1F880249FED5D7B9969D8686A
:10969000CDE9081283ED067BD3E90012079006A8F6
:1096A0009047594AD2F81C31C3B1584B5869196ACE
:1096B00088426AD993F8281001F0FF00002964D18C
:1096C000C2F81C01D2F81C11039103999C68186A16
:1096D000196A205C01311962C2F81C054A4AD2F8A5
:1096E0004431DBB10021494BC2F84411D2F84401A6
:1096F00093F829100090009809B1012111609A692E
:1097000062B1D8685C6A00210122CDE90704996141
:109710008DF8182006A8D3E9001290470AB010BDB2
:10972000394AD2F804335B07BBD5D2F80831002B95
:10973000B7D0364B996900293ED00021C2F80811F4
:10974000D2F8081104910499D868596AD2F81825FA
:1097500042545A6A996901325A625A6A8A42A0D1BD
:10976000DA69002A31D09A611A69D8685C6ADA60CD
:10977000002101220894D961596207905C68196838
:109780008DF8182006A8A0478BE71F4A0020C2F8D2
:109790001C01D2F81C210292029A5A69002A9DD01B
:1097A000D3E901215C698DF81800CDE907145861EF
:1097B000196806A8904791E7C2F80811D2F8080185
:1097C00005900598D2F81825C7E793F8292012B913
:1097D0000D4A012151600C4A4FF40171C2F808137F
:1097E000D8685C6A0021012299618DF81820D3E9BC
:1097F0000012CDE9070406A8904752E7AFF30080B6
:10980000000000000000000000200040F02D0020BB
:109810002DE9F041724E90F804802C2303FB08637D
:1098200082B093F82A30002B40F09B8005460C460E
:1098300000686C491746FFF7DDFE002840F08D8078
:109840002368591C19D01F2B4FF001028ABF6649AB
:109850004FF0A04103F01F0302FA03F3C1F80835EB
:1098600023681F2B86BF03F01F035F4A4FF0A042FF
:1098700003F5E073032142F8231063685A1C0BD0F0
:109880001F2B86BF03F01F03574A4FF0A04203F57A
:10989000E073002142F823102B68A269C3F8242545
:1098A000227D637D13432A68C2F86C35D4E9001227
:1098B0002B68C3F81425C3F80C15237D012B5BD04E
:1098C0002C2303FB08F3F21857602269F2508FB380
:1098D0002A68237F0021C2F81C11D2F81C210092B3
:1098E000009A2A68C2F84411D2F844210192019AE0
:1098F0002A683E49C2F804132A6842F30731002956
:109900004FEA123231DB01F160415B0101F5614147
:10991000DBB281F800332B6843F30732002A4FEAA9
:10992000133108DB324C520901F01F0101238B4037
:1099300044F822302B680422C3F800252C2303FBB3
:10994000086601220023C6E9063386F829307361D0
:1099500086F82A2002B0BDE8F081112002B0BDE8EF
:10996000F081082002B0BDE8F081224902F00F0228
:109970005B01DBB28B54CEE7A368591C0BD01F2BC5
:1099800086BF03F01F0318494FF0A04103F5E073B1
:10999000002241F82320E3685A1C1AD01F2B8ABFEB
:1099A00011494FF0A04103F01F03012202FA03F313
:1099B000C1F80835E3681F2B88BF03F01F0303F5C8
:1099C000E0738CBF08494FF0A041032241F82320E7
:1099D000E3682A68A168C2F80835C2F810156FE775
:1099E000F02D00204196020000030050800002008C
:1099F00000E100E014ED00E02DE9F041334C90F877
:109A000004E02C2303FB0E438446586984B00028ED
:109A10004ED15A619960186283F82800DCF8002062
:109A2000C2F81C01D2F81C210292029ADCF8002034
:109A300001219160DCF800209D68C2F81C01D2F879
:109A40001C1101910199196A6E5C196A0131196240
:109A5000C2F81C655A6812B104B0BDE8F0815E69B5
:109A60001A6ADCF8001096421BD9074602E093F808
:109A700028200ABBD1F81C21002AF8D0C1F81C719B
:109A8000D1F81C210392039A1A6A15F802801A6A07
:109A900001321A62C1F81C851A6A9642EAD8DCF8CB
:109AA0000010D1F81C31002BFBD00123CB6004E067
:109AB000112004B0BDE8F0810F202C2303FB0E44DD
:109AC0000023636104B0BDE8F08100BFF02D0020E9
:109AD0000279044B2C2101FB02335869003818BF6E
:109AE00001207047F02D002030B5554D90F804E06E
:109AF0002C2303FB0E5387B05C68844624B10368B3
:109B00004FF40170C3F808032C2303FB0E5398692C
:109B100098B1D869002840F083801961DA612C225D
:109B200002FB0E52536853B3DCF800304FF401725D
:109B3000C3F80423002007B030BD9A61D960586291
:109B4000D86193F82930002BE9D1DCF80020C2F865
:109B50002431D2F824210192DCF800200199C2F8C6
:109B60000831D2F808310293DCF800300299012262
:109B70001A602C2202FB0E525368002BD4D1DCF861
:109B80000010C1F84431D1F844310393039BDCF851
:109B90000030D3F82411D3F80841D3F8440154B964
:109BA000002834D10029F4D02C2303FB0E530022CB
:109BB0009A610320BFE70029F6D150BB9169C3F831
:109BC000080181B1D3F8081104910499D468516A4D
:109BD000D3F818356354536A916901335362536A59
:109BE0009942D4D806E0D3F8081105910599D3F825
:109BF0001835536A2C2303FB0E53002193F82920B8
:109C00009961B2B1DCF8003001221A6093E70029B3
:109C1000CAD12C2303FB0E5300229A610F208AE73E
:109C200064B1DCF800304FF40172C3F80423112052
:109C300081E7DCF8003001225A607CE711207AE7E6
:109C4000F02D00200000000010B55B4BD3F824215C
:109C50008AB0002A58D00022C3F82421D3F8241156
:109C6000049102228DF818200499544AD3F88014E4
:109C7000C3F880149FED4E7B0991D3F83C45D06822
:109C800082ED067BCDE90704D2E9001306A89847C8
:109C9000494BD3F8442152B10021484AC3F844113A
:109CA000D3F84401916903900398002961D1424B94
:109CB000D3F8202162B10020C3F82001D3F820217D
:109CC000029201213D4A029CD9605169002943D189
:109CD000394BD3F85821AAB10020C3F85801D3F862
:109CE0005811364A01910199516959B1D3F84C453F
:109CF0008DF81800D2E901315061CDE9071406A8AA
:109D0000116898470AB010BDD3F810110029BFD0D0
:109D1000C3F81021D3F81011284C05910599A169B9
:109D2000D3F83C058842B3D1E169002933D0C4E9B6
:109D30000612D3F8002222F02002C3F80022E268C3
:109D40000792012122698DF8181008906368216834
:109D5000E26006A898479BE7D3F84C458DF81800B9
:109D6000D2E901315061CDE9071406A8116898477E
:109D7000AEE79FED0F7BD3F83C45D0684FF0010C68
:109D8000CDE9070482ED067BD2E900138DF818C0F7
:109D900006A898478BE7E268A1610123CDE9072077
:109DA0008DF8183006A8D4E90013984770E700BF73
:109DB000000000000000000000200040202E0020D5
:109DC0002DE9F04307797F4E07EBC70306EB8303CA
:109DD00087B093F82030002B40F0B48004460D4645
:109DE000006879499046FFF705FC002840F0A680FE
:109DF0002B68591C4FEAC70919D01F2B4FF00102DD
:109E00008ABF72494FF0A04103F01F0302FA03F327
:109E1000C1F808352B681F2B86BF03F01F036B4A60
:109E20004FF0A04203F5E073032142F823106B6862
:109E30005A1C0BD01F2B86BF03F01F03634A4FF041
:109E4000A04203F5E073002142F823102368AA69B9
:109E5000C3F824252B7D6A7D1A432368C3F86C253B
:109E6000D5E900312268C2F80C35C2F814152B7DF3
:109E7000012B72D009EB070206EB8203C3F80480C2
:109E80002B6946F82230B8F1000F46D021682B7FAD
:109E90000022C1F81021D1F8101101910199216817
:109EA000C1F82021D1F82011029102992168C1F84E
:109EB0002421D1F82411039103992168C1F8442188
:109EC000D1F84411049104992168C1F85821D1F8BE
:109ED00058210592059A22683D49C2F80413226868
:109EE00042F3073100294FEA12322FDB01F16041C2
:109EF0005B0101F56141DBB281F80033226842F376
:109F00000733002B4FEA123108DB324D5B0901F0B9
:109F10001F0101228A4045F823202268B94406EB3C
:109F200089060121002386F820100821C2F80015B7
:109F3000C6E90633736107B0BDE8F083112007B0AE
:109F4000BDE8F083082007B0BDE8F083224902F0A5
:109F50000F025B01DBB28B54D0E7AB68591C0BD00E
:109F60001F2B86BF03F01F0318494FF0A04103F5D4
:109F7000E073002241F82320EB685A1C1AD01F2BF3
:109F80008ABF12494FF0A04103F01F03012202FAD9
:109F900003F3C1F80835EB681F2B88BF03F01F03DC
:109FA00003F5E0738CBF09494FF0A041032241F84B
:109FB0002320EB682268A968C2F80835C2F810159A
:109FC00058E700BF202E0020499C020000030050EB
:109FD0001003420000E100E014ED00E001F0604CED
:109FE000BCF1005F30D170B590F804E0264C0EEB68
:109FF000CE0C04EB8C0C0346DCF8140082B04FEA64
:10A00000CE0500283AD1CCF81420CCF808101A68F4
:10A01000C2F82001D2F820210192019A1A68C2F8F0
:10A020005801D2F858210092009A1A68DCF814609E
:10A03000C2F84415C2F848651A6801219160DCF83D
:10A0400004201AB102B070BD102070471A6800E0F9
:10A05000B8B9D2F82011D2F858010029F8D080B947
:10A060000121D1601B68D3F85821002AFBD0754428
:10A0700004EB850300225A6102B070BD112002B0CA
:10A0800070BD0F20F3E700BF202E00200379054AA2
:10A0900003EBC30302EB83025069003818BF0120B1
:10A0A000704700BF202E002001F06043B3F1005F35
:10A0B00062D1F0B490F804C0484C0CEBCC0304EB34
:10A0C000830382B05E684FEACC0326B105684FF483
:10A0D0000477C5F80873634404EB83039D695DBB93
:10A0E0009A61DD61D9600368C3F81051D3F810316B
:10A0F0000193019B0368C3F84451D3F844310093A2
:10A100000368009DC3F83415C3F83825036801229D
:10A110001A6090F804C00CEBCC0304EB83034FEA05
:10A12000CC055B6853B303684FF40472C3F804238F
:10A13000002002B0F0BC7047DD69002D37D11961F5
:10A14000DA610368C3F81051D3F810310193019B11
:10A150000368C3F84451D3F8443100930368009D69
:10A16000C3F83415C3F838250268D2F8003243F03A
:10A170002003C2F80032CCE710207047036801E0EA
:10A18000E9B910BBD3F81021D3F84411D3F8240156
:10A19000002AF5D0654400284FF0000304EB850544
:10A1A00018BF03209942AB6118BF0F20C1E796B1D9
:10A1B00003684FF40472C3F804231120B9E765441F
:10A1C00004EB85040F20A261B3E7654404EB850529
:10A1D0000320A961ADE71120ABE700BF202E0020CE
:10A1E0000220FEF7A5BB00BF2DE9F04706460D464D
:10A1F000FEF7CCFB032805D8012D04461AD0022D0A
:10A2000027D00DB1BDE8F0871B48FDF755FD1B4B6E
:10A210001B4A04EB44010B44125D9D78AA42F1D124
:10A22000002DEFD0174B1B68002BEBD02846BDE864
:10A23000F0471847114F00EB4003FA18FD5C5378C4
:10A240004FEA40085BB9A04447440D4BBA781A5511
:10A25000E6E70A4B00EB400423445D78E0E7DFF8D3
:10A26000289005484A464FF48041FDF7C9FC002874
:10A27000E9D189F80060E6E7482B0020482E00204D
:10A28000642E00205C2E0020442E002010B50078A3
:10A29000FEF77CFB03280BD8064B00EB4000034481
:10A2A000587828B1044B1B6813B1BDE8104018471B
:10A2B00010BD00BF482E00205C2E002038B5BA4DDE
:10A2C0002B7804466BB1B94B1B7800202870002B0B
:10A2D0004DD0FEF7EFFA0120FEF7ECFA0320FEF76F
:10A2E000E9FA172C00F25E81DFE814F0EB0063005E
:10A2F00063009F00AC00B900CB0097005000440001
:10A30000500044007A0018001800180018001800C7
:10A31000D9001801810000015C005C00A448FDF731
:10A32000CBFCD4F11104054600F02681002840F052
:10A330002381012C14D0C82303FB04F429464FF4D5
:10A3400000434FF47A70C4FB03014FF4FA62002318
:10A3500003F0EAF92A4601469548FDF751FC054607
:10A360000220FEF795FA914B01221A701FE0FEF7CA
:10A37000B3FAB6E701202870FEF7DAFABDE83840F4
:10A380008C4800224FF40051FDF73ABC01202870A0
:10A39000FEF7CEFABDE838408648002240F26661FA
:10A3A000FDF72EBCFEF7AEFA834B00251C70284645
:10A3B00038BD0020FEF758FA002840F0C380FEF7B1
:10A3C00067FA40F6CD4141F69A13022C18BF1946A0
:10A3D000794B1C70BDE8384076480022FDF710BC70
:10A3E000FEF790FA744B0C221A700025DFE76F4BD2
:10A3F0001B78002B00F0D3800020FEF75BFA0120D1
:10A40000FEF758FA0320FEF755FA0120FEF740FA4E
:10A41000694B14221A700025C9E70020FEF738FAAC
:10A42000654B07221A700025C1E70020FEF71CFAD1
:10A43000002840F09B80FEF72BFA40F6CD415E4BA2
:10A440000324C6E70020FEF70FFA002840F08880BA
:10A45000FEF71EFA41F69A11574B0424B9E7002083
:10A46000FEF702FA002877D1FEF712FA524B514854
:10A4700005241C70BDE83840002240F6CD41FDF7B0
:10A48000BFBB0020FEF754FA4B4B4A4806241C7011
:10A49000BDE83840002240F26661FDF7B1BB434B96
:10A4A0001B78002B78D00020FEF704FA0120FEF77D
:10A4B00001FA0320FEF7FEF93F4B12221A70002525
:10A4C00075E73A4B1B78002B60D00020FEF7F2F9BD
:10A4D0000120FEF7EFF90320FEF7ECF93548FDF710
:10A4E000EBFB354B002205461A7060E72F4B1B78BB
:10A4F000002B48D00020FEF7DDF90120FEF7DAF945
:10A500000320FEF7D7F90020FEF7C2F90120FEF77D
:10A51000BFF9294B15221A70002548E7234B1B78F9
:10A52000BBB30020FEF7C6F90120FEF7C3F90320F4
:10A53000FEF7C0F90020FEF7ABF91F4B13221A708B
:10A54000002534E70020FEF7B5F9022C47F233313D
:10A5500018BF4FF480313BE70020FEF7ABF985E7E9
:10A560000020FEF7A7F94FF4803175E70020FEF7D1
:10A57000A1F943F2333162E70220FEF79BF90B4B5E
:10A5800000221A7013E7FEF7A7F9BCE7FEF7A4F95B
:10A59000A4E7FEF7A1F9CDE7FEF79EF98CE7FEF7F9
:10A5A0009BF932E7002502E7582E0020452E0020B7
:10A5B000282B0020682B0020602E0020044B1B68F5
:10A5C000DB0700D47047034B1878FFF777BE00BF56
:10A5D000542E0020602E0020032801D9002070474F
:10A5E000FEF7C0B9044B1B6813F0010301D11846F4
:10A5F0007047FFF763BE00BF542E002038B5244BD0
:10A60000244A196081070446106004D410F0010543
:10A610002CD1284638BD204B20480E210F2219701E
:10A62000DA701021112299715A72042140F23332EA
:10A63000FCF7FAFF054630B1E207EAD50120FEF744
:10A64000BDF9284638BDFDF74BF805460028F3D183
:10A650000146134A1348FDF7BBFAE3070546D8D570
:10A660000120FEF7ABF9002DD3D102E00120FEF767
:10A67000A5F90D4A0D480021FDF7AAFA0546002864
:10A68000C7D1BDE838400A4A0A480121FDF7A0BAFF
:10A690005C2E0020542E0020482E00209CDA020060
:10A6A0008DA20200C0DA0200BDA50200C4DA0200D9
:10A6B000E1A10200BCDA0200032806D8012A06D074
:10A6C00001291BD0022908D071B107207047012948
:10A6D00011D002294FF00002F6D10B4B00EB4000E5
:10A6E000034400205A707047074B00EB40000344BE
:10A6F00008469A70704700F10E02D2B200EB400398
:10A7000001490020CA547047482E0020032801D96F
:10A710000620704708B5FEF74BF91F2886BF0A4B85
:10A7200000F01F004FF0A04303EB80030020D3F89C
:10A73000002722F44032C3F80027D3F8002742F460
:10A740004032C3F8002708BD0003005010B503884D
:10A75000102B07D0112B04D1254B18680138186035
:10A7600030B110BD224C216811B30131216010BD00
:10A7700001220221FFF7A0FF40B1072806D01D4BA0
:10A780001B68002BEDD0BDE81040184707220221BE
:10A790000120FFF791FF08B10728F0D100210A221C
:10A7A0000846FFF789FF0028DBD00728E7D1D8E764
:10A7B00001220846FFF780FF38B1072805D00D4B6E
:10A7C0001B6803B198472168CFE7072202210120C7
:10A7D000FFF772FF08B10728F1D1042202210020FF
:10A7E000FFF76AFF0028EED00728E8D1EBE700BFAB
:10A7F0006C2E0020682E002008B50020FFF786FF91
:10A8000010B1062800D008BD0120FFF77FFF002807
:10A81000F9D0062808BF002008BD00BF184B10B5AE
:10A82000186031B101200C46FFF7D6FEF8B10223C3
:10A830002370144B186808B1002010BD01220221BA
:10A84000FFF73AFF08B10728F7D1072202210120BC
:10A85000FFF732FF08B10728EFD100210A2208468E
:10A86000FFF72AFF0028E7D00728E5D010BDFFF743
:10A87000B3FE10B10B232370DBE72070D9E700BFD4
:10A88000682E00206C2E002076DF70477ADF70473C
:10A890007CDF70477FDF70478FDF7047B1DF704725
:10A8A00033DF7047FCF732BF10B50388212B82B02D
:10A8B000044613D80F2B0FD9103B112B0CD8DFE80F
:10A8C00003F028350B3B0B0B0B0B0B0B0B0B0B0B84
:10A8D0000B0B0B1C3B2B05D002B010BD522B35D0FF
:10A8E000562BF7D1A0881321FFF7CEFF0028F3D015
:10A8F00002B0BDE81040FCF709BF00238088ADF826
:10A90000043001A9FFF7C8FF0028E5D0FCF7FEFEE0
:10A91000E2E70720FFF766FE10BB134BA188134840
:10A92000198001F0F1FB0028D6D0E1E70E4B4FF67D
:10A93000FF721A8002B010BD0B4A002310888521D7
:10A940001A46FFF7A7FF0028C6D0D1E7064A002322
:10A95000108819461A46FFF7A1FF0028BCD0C7E7A8
:10A96000FCF7D4FED9E700BF8E2B0020B4330020C3
:10A97000074B4A881B889A4200D070470A8840F6E5
:10A9800077239A42F9D18B88024A033B13807047A0
:10A990008E2B00208C2B002008B5037803B108BD56
:10A9A000054B3B211888FFF76FFF0028F7D0BDE863
:10A9B0000840FCF7ABBE00BF8E2B0020072808B56F
:10A9C0001CD00A280ED0042800D008BD154B132136
:10A9D0001888FFF759FF30F00803F6D0BDE80840AB
:10A9E000FCF794BE0020FFF7FDFDB8B9FFF704FFA8
:10A9F00088B9FFF755FF0028F0D108BD094A128831
:10AA00004FF6FF739A42E0D1074800F0BDFE30F0E8
:10AA10000803E3D108BDFCF779FEEAE7FCF776FE10
:10AA2000E4E700BF8E2B0020682F00200378012B65
:10AA300003D0022B01D01BB170474068FCF766BE03
:10AA40002DE9F0431F4D204C287883B02044FDF7BA
:10AA500077FA2A780132D2B214442A7014F8013CF1
:10AA60000A2B08D00D2B06D0184B1B88934202D915
:10AA700003B0BDE8F083012A1ED9DFF85C80DFF85F
:10AA80004890134F134E08E0132801D8DB0701D478
:10AA9000FCF73CFE132C0FD12A78B8F80030ADF843
:10AAA000062049460DF10602384601F0C3FC08288D
:10AAB000044626FA00F3E7D100232B7003B0BDE86B
:10AAC000F08300BF642F0020702E00208C2B00200C
:10AAD000902B0020210008008E2B002038B5047830
:10AAE00084B9838A0546F3B12B69185DFDF754FAE2
:10AAF00048B9AB8A0134A342F6D8013B2A69D35C3A
:10AB00000D2B05D038BD1128EED0FCF7FFFDF0E786
:10AB10000A20FDF741FA1128F4D10A20FDF73CFA8A
:10AB20001128F5D0EEE74FF0FF33E7E7FCF7EEBD75
:10AB300008B530B1032803D10220FFF753FD50B907
:10AB400008BDFFF74FFD50B9FFF756FE68B9FFF794
:10AB5000A7FE0028F4D0BDE80840FCF7D7BDFCF7FD
:10AB6000D5FDFFF749FE0028F1D0FCF7CFFDEEE759
:10AB700008B50B490B4801F0D1F928B90948F7216C
:10AB800001F0E4F940B908BDFCF7C0FD0548F72124
:10AB900001F0DCF90028F6D0BDE80840FCF7B6BDAE
:10ABA00071A902009C33002000B57A4C0FCCB1B0E3
:10ABB0000DF1140CACE80F0094E80300764A774BD3
:10ABC00003934FF480748CE80300CDE9012407233C
:10ABD000734A049401A905A8FDF73EF9002840F046
:10ABE000AB80FCF7BDFF002840F0D0806D4903200A
:10ABF000FFF704FD002840F0C68005A90020FFF7FC
:10AC00000DFE002840F0BC80FDF766FC002840F0F7
:10AC1000B48001F047FC002840F0AC80002305A977
:10AC20000120059301F024FD002840F0A08005A834
:10AC300001F086FD002840F0978011235A488DF8D6
:10AC4000043002F073FA584982B201A8FFF720FEDF
:10AC5000002840F086800822002105A802F074FB3D
:10AC6000524A4FF0C87305A8CDE90523FFF70EFE41
:10AC7000002873D1FFF77CFF4D4B4E48059305A983
:10AC800001F030FA002866D1042200210DEB020009
:10AC900002F05AFB484B4948019301A901F058FBC7
:10ACA000002855D1AC22002105A802F04DFB01235C
:10ACB00043491991ADF8603040218DF8903044F24D
:10ACC0005063404A2791022428933F488DF814404E
:10ACD0004FF4A06305A92E92ADF8163000F086FC63
:10ACE00098BB3948012100F07DFC1C22002105A8F9
:10ACF00002F02AFB4FF4A0340023CDE90534334998
:10AD0000334AADF822304FF4F024079405A8032409
:10AD1000CDE90A128DF820408DF8243000F094FE21
:10AD200080B92C4801F076FD2748032100F0E0FCB3
:10AD300028B9FDF7E7FBFCE7FCF7E8FC51E7FCF777
:10AD4000E5FCF6E7FCF7E2FCEBE7FCF7DFFCC8E725
:10AD5000FCF7DCFCA6E7FCF7D9FC95E7FCF7D6FC92
:10AD600088E7FCF7D3FC76E7FCF7D0FC65E7FCF757
:10AD7000CDFC5CE7FCF7CAFC50E7FCF7C7FC48E7F2
:10AD8000FCF7C4FC40E7FCF7C1FC36E7FCF7BEFC6F
:10AD90002CE700BFE8DA0200C0330020C0340020F6
:10ADA0002DAA0200BDA90200C8DA020010003C0072
:10ADB000A5A80200B4330020DDAA0200902B0020D9
:10ADC000882B002031AB0200682F002099A90200D7
:10ADD0002DAB0200D4DA02006DDF704779DF7047D7
:10ADE0007DDF704764DF70472DE9F04F85B09946ED
:10ADF0000E9E0388BDF83CA0009117463288019250
:10AE0000002B53D04FF00008C3464546804605E06E
:10AE1000B8F800200BF1010B5A4529DDD8F80410D1
:10AE200051F82B00039000220DF10B0103A8FFF74E
:10AE3000D9FF044630BB9DF80B20BA42E8D12DB3B0
:10AE40003288D119514536DC4A440DF10B0103A873
:10AE50000125FFF7C7FF002832D131889DF80B206C
:10AE60000A443280B8F800200BF1010B5A45D5DCBA
:10AE7000E5B13388019A013B9B1A9BB2FF2B1AD88C
:10AE800009F80230204605B0BDE8F08F3288511C29
:10AE90003A440232524589B20DDC009B318009F8F8
:10AEA00001303288013292B23280CDE70024204650
:10AEB00005B0BDE8F08F0C24204605B0BDE8F08F4A
:10AEC0000446204605B0BDE8F08F00BF2DE9F047ED
:10AED00000231788138090F82D3086B0144606465C
:10AEE0000D46002B40F0FE80B278002A40F0F3803F
:10AEF000F178A1B1DA1CBA4200F2F0800222EA54E1
:10AF00002388012213449BB22380EA5423881344EC
:10AF10009BB22380E954238813449BB22380726838
:10AF2000AAB192F90010DA1CBA4200F2D7800222CC
:10AF3000EA54238801339BB20A222380EA542388EF
:10AF400001339BB22380E954238801332380338962
:10AF5000002B40F0F180338A002B40F02581338BA9
:10AF6000002B40F03B81336A002B42D02088821DA9
:10AF7000BA4200F2B3801A88052A40F28A816FF43F
:10AF8000486802EB080189B24FF27D3C614540F20E
:10AF900080815988052940F27C816FF4486E8E4487
:10AFA0001FFA8EFEE64540F274814FF6FF7C624543
:10AFB00002D08A4200F26D8105222A542288013291
:10AFC00092B212212280A9542288013292B22280A8
:10AFD0001988A9542A44090A51702288023292B26F
:10AFE00022805B88AB542A441B0A537023880233A7
:10AFF0002380736A002B2FD09988B4F800C0881C76
:10B000000CF102020244BA4268D8FE2866D8033125
:10B0100005F80C102288013292B2FF212280A95437
:10B020002288013292B222801988A9542A44090A3E
:10B0300051702088023080B220809A8862B199686D
:10B040000393002900F02581284402F061F8039B56
:10B050009A8823881344238096F82C30002B40F0E4
:10B06000D680307800283AD03388012B00F0118147
:10B0700023889A1CBA4231D8012804D17178023150
:10B0800019448F422AD3023FFF1ABFB2A81804A95D
:10B09000ADF81070FFF7A4FE08BB3378022B00F068
:10B0A00000817178BDF810209142C0F0F68097427F
:10B0B000C0F0F38017460922FE2F0FD82388791C91
:10B0C000E954238801339BB22380EA542388013357
:10B0D0003B44238003E00433BB4248D90C2006B034
:10B0E000BDE8F087082FF9D904A8FFF775FE0028FE
:10B0F000F5D123880822EA54238801339BB21B220E
:10B100002380EA542088013080B22080062228441F
:10B110000DF1110101F0FCFF23889DF8102006338A
:10B120009BB212F0FE0218BF01222380EA5423884A
:10B1300001339BB22380D7E606F108080222CDE94D
:10B1400000472B4611464046FFF74EFE0028C6D169
:10B15000CDE9004740462B4610220621FFF744FE6A
:10B160000028BCD1338A002B3FF4F9AE1CE004A8C0
:10B17000FFF734FE0028B2D123880322EA54238843
:10B1800001339BB219222380EA542388BDF8102092
:10B1900001339BB22380EA542B44120A5A7023884D
:10B1A00002339BB22380A3E606F11008CDE90047E5
:10B1B0002B46022203214046FFF716FE00288ED1BF
:10B1C000CDE9004740462B4610220721FFF70CFE31
:10B1D000002884D1338B002B3FF4C5AE06F118084C
:10B1E000CDE900472B46022214214046FFF7FCFD23
:10B1F00000287FF474AFCDE9004740462B4610226B
:10B200001521FFF7F1FD00283FF4ADAE67E7B16A05
:10B2100000293ED04FF000094B464FF0160A2BE0B4
:10B220002388E854238801339BB2238005F803A0C8
:10B23000238801339BB2238031F82220EA542B4427
:10B24000120A5A702088023080B22080B8F8042098
:10B2500028444AB1D8F80810D9B101F059FFB8F81C
:10B26000042023881344238096F82C205FFA89F366
:10B270009A427FF6F6AEB16A03EB430201EB820815
:10B2800009F10109B8F80430D81C0233FE2BC7D9E4
:10B2900024E7072006B0BDE8F087012B08D008227C
:10B2A0000AE7BDF810309F42F9D31F46092203E791
:10B2B0008F42F4D30F460822FEE600BF00B30129F7
:10B2C0004FF000030FDD00EB030C9CF801C0944528
:10B2D00009D010F803C00CF1010C63449BB203F1D8
:10B2E000010C6145EFDC8B4209D2C25C3AB1013AF4
:10B2F00092B222B102339BB21A44914201DA002089
:10B3000070471844704700BF72DF704773DF7047A3
:10B3100074DF704770B5044600F2264681700D4612
:10B3200007220021304602F00FF8E38813B1A3781A
:10B33000012B73D0E379002B6DD194F82734002BC7
:10B3400078D194F82834002B74D194F82934002B48
:10B3500070D194F82A34002B6CD194F82B34002B44
:10B3600068D194F82C341A1E18BF01226B1E032BCF
:10B3700000F23581DFE803F00206090CA379002B07
:10B3800040F0AD80E379002B56D1237A002B69D1B0
:10B39000657A002D54D1A570002384F82F3404F170
:10B3A0003C0518220021284601F0CEFFE26A012365
:10B3B000511E994284F83C301BD9042A19D094F8C4
:10B3C000242084F85130DAB1A36A5A1E012A2FD9F9
:10B3D000042B2DD00122A37884F85220002184F878
:10B3E0005010042B00F2F180DFE803F03E4877AF05
:10B3F0008200D3B294F8242084F85130002AE3D19B
:10B40000A37884F85020042B00F2DF80DFE803F0FB
:10B410002C3655CDC600A378022B8ED1636B002B42
:10B4200000F0DA80012284F82D240820984784E770
:10B43000DAB2D0E7012299E7002AA6D00225AAE7CE
:10B440000422636BA270002BA6D06279002AA3D0DD
:10B4500094F82E24002A9FD10122A4F82F2407203B
:10B4600098479CE70322ECE7002384F83130636BB4
:10B4700013B194F831009847002070BD00230122D9
:10B48000C4E9106384F83120C4F8203402228023F8
:10B4900084F83C20A4F8483000212A4604F15400E6
:10B4A000FFF732FF0028E8D194F8301094F85400E8
:10B4B000FFF72CFF0028DAD070BD0323022284F8A6
:10B4C000312084F83C302269E368A4F84820002247
:10B4D000C4E91063C4F82024DEE70723EEE794F8FC
:10B4E0002430002B7FF44EAF002A3FF44EAF52E7DA
:10B4F000D4E907126164A4F848200621627984F82F
:10B500003C10002A57D094F82E24002A53D194F8E6
:10B510003024002A4FD00223B4F81414D4F81004B5
:10B5200084F850300122FFF7C9FE08B104230370EC
:10B5300004F582662A46314604F15400FFF7E4FE22
:10B54000A37800283ED1062238E0D4E90512A4F8F9
:10B5500048200622616484F83C206279C2B394F8E2
:10B560002E24AABB94F8302492B30223B4F8141406
:10B57000D4F8100484F850300122FFF79FFE08B180
:10B580000423037004F582662A46314604F1540010
:10B59000FFF7BAFEA378A8B905220FE0D4E9071295
:10B5A0006164A4F848200121A8E7D4E90512616488
:10B5B000A4F84820D1E704F58266042284F83120FB
:10B5C000C4F82064002B3FF452AFD4F8201464E791
:10B5D00004F582660322F1E784F82D34ADE60023FA
:10B5E000A370D9E680F83010704700BF00297AD0E8
:10B5F0002DE9F0410446002877D091F87A300D46C5
:10B600002BB191F8983013B10720BDE8F0810027E5
:10B61000A77005F1780EBEE80F0004F1040CACE849
:10B620000F00BEE80F00ACE80F009EE807008CE8B2
:10B63000070084F83070D5F8A4306363D5F8A830DB
:10B64000A3634FF6FF7804F5826639460722C4F8F3
:10B650002064A4F8248404F2264001F075FE2378C7
:10B660000BB984F8548094F82430002B14BFEE23D7
:10B670001F2304F15501C4F81014A4F8143404F283
:10B6800014422846FFF722FC0028BED194F824304B
:10B69000002B14BFEE231F2304F23121C4F8181429
:10B6A000A4F81C3404F21C4205F13C00FFF70EFC28
:10B6B0000028AAD1D4E905230125A4F848304FF485
:10B6C0008073C4E91002014684F83C5004F13C0246
:10B6D00004F15400A4F85030FFF716FE002894D16E
:10B6E0002570BDE8F0810E2070470E208DE700BF69
:10B6F00003780BB1FFF70EBE0820704710B5038822
:10B70000112B0C460BD0262B22D0102B00D010BDB5
:10B71000C37B012BFBD18388A1F8243410BD002307
:10B7200081F82E348288B1F824349A42EFD10B7913
:10B73000002BECD10B7813B301212046FFF7EAFD73
:10B740000028E4D0A36B002BE1D0BDE810401847DF
:10B75000037A013B012BDAD80B7889787BB1094B4E
:10B760000131A3FB012303F4FE7202EB9303C91A18
:10B77000C9B22046FFF7CEFD0028E3D110BD082056
:10B78000E0E700BFCDCCCCCC38B5044690F85400EF
:10B79000FFF7BEFD00230122B4F81414D4F81004FE
:10B7A00084F82E2484F8303484F85030FFF786FD76
:10B7B00008B10623037004F13C0204F5826104F130
:10B7C0005400FFF7A1FD054648B92378A17843B19D
:10B7D0002046FFF79FFD10B1A36B03B198472846A1
:10B7E00038BD0820F8E700BF75DF704776DF704787
:10B7F0007ADF70477BDF704770B51D4D2B8884B2B0
:10B80000A34282B011D11B4E297A327B91420ED3D2
:10B81000337C00222A72F3B9736933B100228DF8A8
:10B820000420ADF8064001A8984702B070BD05F1AC
:10B830000A011846FFF7D8FF40B11128F5D0B369C7
:10B84000002BF2D002B0BDE8704018472B7A0133CC
:10B850002B7202B070BD3B212046FFF7C7FF30F0CE
:10B860000803D9D0B369002BD6D09847D4E700BFDE
:10B87000DC350020C035002070B50288122A82B065
:10B8800003466ED015D8102A30D0112A0FD16B4C38
:10B89000828823889A420AD16068FCF70DFA18B1B1
:10B8A000674B9B6903B198474FF6FF73238002B043
:10B8B00070BD502AFBD1624DC188EA899142F6D110
:10B8C000028A022AF3D15D4C828826889642EED104
:10B8D000123000F0E1F9002800F09B80637A002B21
:10B8E00040F09E80D5E9011332466AE090F80FC01F
:10B8F0008288BCF1010FDAD1504C20884FF6FF71DD
:10B9000088427FD14F4D22800021217203CDC4F89F
:10B910000A00C4F80E10588A6589B4F80CE0E18971
:10B92000854260D886455ED340F2F315A9429B8AD2
:10B9300094BF481A481B984255D82944994252D37B
:10B940003F4D84F809C0EB89002BB0D16B69002B07
:10B95000ADD001218DF80410ADF8062001A898475C
:10B96000A5E7364C828821889142A0D14589B4F858
:10B970000AC0B4F80CE0E089AC451DD8AE451BD335
:10B9800040F2F31C60459B8994BF051AA0EB0C059F
:10B990009D4211D8604498420ED3294B5B694FF405
:10B9A00080722281002B82D001228DF80420ADF814
:10B9B000061001A898477AE7214D00236372696851
:10B9C000AB68207A002818BF19466068FCF718F9A0
:10B9D00000283FF46CAFAB69002B3FF468AF02B0B6
:10B9E000BDE870401847164DEB8900216172002BAD
:10B9F0007FF45DAF69686068FCF702F900283FF4E6
:10BA000056AFE8E70E4B9B69002B3FF450AF042084
:10BA1000E5E76068FCF750F900283FF448AFDAE743
:10BA20006B6900222272002B3FF441AF01228DF896
:10BA30000420ADF8066001A8984738E7DC350020FF
:10BA4000C0350020F035002070B3F8B58646076891
:10BA5000164E174D0446BEE80F00B446ACE80F0082
:10BA60009EE8070035608CE80700BFB13846FFF755
:10BA7000BFFE90B923681868596803C50D4B0E497D
:10BA80000E4A18464FF6FF7440F8041F1C80002130
:10BA9000FCF79EF8002818BF0320F8BD2846FFF7E2
:10BAA000A9FE0028EAD0F8BD0E207047C03500205E
:10BAB000F0350020DC350020F8350020F9B7020011
:10BAC0002DE9F04F0388B0F80490103B99B0074679
:10BAD0000A2B12D8DFE803F028711111111111118E
:10BAE0001178140046484946FCF7BAFC45484946D7
:10BAF000FCF7B6FCFB7B022B7CD019B0BDE8F08FC5
:10BB0000037A41483F2B4FEA1314494665D9FCF7A5
:10BB1000A7FC3E484946FCF7A3FC3D48494619B0FE
:10BB2000BDE8F04FFCF79CBC3A4A9368DB430093B6
:10BB300051686846FCF7C2FC009B0193019B9BB3D4
:10BB40004FF000084446214601A8FCF7A1FC30B1A3
:10BB500018AB03EB480308F1010823F8284C013423
:10BB6000142CF0D1CDF834800DAD0FCD02AC0FC444
:10BB70000FCD0FC495E8070084E80700B8F1000F67
:10BB800012D0254E0DF10A0B4FF0000A3BF8025F70
:10BB90001C4C204629460434FCF76EFCB442F8D114
:10BBA0000AF1010AC245F1D1B9F1130F9AD9042063
:10BBB000FBF7ACFD19B0BDE8F08F1148494619B04C
:10BBC000BDE8F04FFCF758BC037A002B95D1437ABF
:10BBD0000D481B074946F2D5A1E7FCF74DFC032CA5
:10BBE00097D00A484946FCF747FC022C95D00848F4
:10BBF0004946E4E709484946FCF732FC7DE700BFC7
:10BC0000203600201C360020303600202C36002044
:10BC100028360020183600209436002024360020D4
:10BC2000132801D91420704710B504462146044852
:10BC3000FCF72EFC08B1204610BD142010BD00BF3B
:10BC40001C3600201AB3002370B504461546136055
:10BC5000B8B10368ABB1C38813F003060FD108462F
:10BC6000FFF7DEFFC0B214280FD0237983420AD930
:10BC7000E288236800FB02332B60304670BD07204A
:10BC800070BD0E2070BD042070BD052070BD0E205B
:10BC9000704700BFAADF7047008800F001007047BE
:10BCA000F0B58B7891B0012B38BF01230C468DF88D
:10BCB0000E3005460B88ADF80C30164600210322E5
:10BCC000684601F041FB637C0022013B8DF80020B7
:10BCD000042B09D8DFE813F0CF00D300D70005000C
:10BCE000DB0012238DF80030A37C0022013B8DF88D
:10BCF0000120042B09D8DFE813F0CE00D200D600D3
:10BD00000500BA0012238DF80130237D217B013319
:10BD100003F0030341EA4301E37B41EAC301237CCF
:10BD200041EA03119DF8023001F01F0123F01F03C7
:10BD300019438DF802101C22002109A801F004FB10
:10BD4000637B13F0300F71D1637B8DF824301422A4
:10BD5000A37B8DF82530002104A801F0F5FAA28814
:10BD6000A368ADF81C2003AACDF814D004921BB12F
:10BD70000893E388ADF81830A369002B34D001AFE5
:10BD800003220021384601F0DFFAA2691188ADF8DC
:10BD90002C1000238DF804305388ADF82E305368F2
:10BDA0000D970A93137B013B042B2BD8DFE803F09C
:10BDB00093979B27870012238DF80530917B137A88
:10BDC000013101F0030143EA4103917AD27A43EA57
:10BDD000C10343EA02139DF8062003F01F0322F07B
:10BDE0001F0213438DF80630E36903B10C93334609
:10BDF00004AA09A92846FFF74DFF11B0F0BD122390
:10BE00008DF80430537B0021013B8DF80510042B85
:10BE1000D4D801A151F823F0C7BE0200CFBE020062
:10BE2000B7BE0200B7BD0200AFBE020002AF0322E0
:10BE30000021384601F088FAE37C0022013B8DF8AE
:10BE40000920042B07D8DFE803F0525E5A0356009E
:10BE500012238DF809309DF80A300E97012262F303
:10BE600042038DF80A3011238DF808306CE7222345
:10BE70008DF8013049E711238DF8003034E7212394
:10BE80008DF8003030E731238DF800302CE7222385
:10BE90008DF8003028E711238DF8013035E7212394
:10BEA0008DF8013031E731238DF801302DE7222361
:10BEB0008DF8053082E731238DF805307EE72223A7
:10BEC0008DF804309EE711238DF8053076E72123A5
:10BED0008DF8053072E711238DF8043092E72123A5
:10BEE0008DF804308EE731238DF804308AE7112372
:10BEF0008DF80930AFE722238DF80930ABE7312305
:10BF00008DF80930A7E721238DF80930A3E700BF9A
:10BF100090DF7047A5DF7047B5DF704708B90E2086
:10BF2000704730B4FB220271074C016100234FF0CF
:10BF3000F71541F6FB320560C0F806404381828167
:10BF400030BC1846704700BFF700170040B1A1F1A0
:10BF50001703E02B02D801800020704707207047AC
:10BF60000E2070478288002A39D110B50388242B0F
:10BF700084B00C4611D80F2B2DD9103B142B2AD886
:10BF8000DFE803F06A7C2929292929292929292977
:10BF9000292929292929298559003A2B33D0552BBC
:10BFA00019D1C388C988A272172B38BF17238B42B7
:10BFB00028BF0B4623811046FFF7AEFFE37A53B943
:10BFC000236943B140F6772122890291ADF80C2014
:10BFD00002A920469847A37A53B904B010BD704710
:10BFE0001128237B44D1627B01219A42A17242D362
:10BFF000E1880020FFF78EFF0028EED14FF4807318
:10C00000638104B010BD4389C98822698B4228BF6F
:10C010000B46172B38BF172323814AB1E17A39B178
:10C0200040F677210291ADF80C3002A920469047E6
:10C0300000236381D1E70B69027A4A73002BCAD0CF
:10C0400000204DF67A218DF80D0002918DF80C201C
:10C0500002A920469847BEE70B790B73C27B012AE1
:10C060002DD0022A29D14988E18022898A4229D308
:10C07000627B9A42AFD29BB200220FE01649C4F80D
:10C080000610002241F6FB336281A381A5E7037A03
:10C09000097B8B424FF0000228BF0B46104663F32A
:10C0A0000F0263F31F42029202A96A4603900090B6
:10C0B000ADF80400FFF72CFF8DE7C988D5E70988A4
:10C0C000E180D2E70020FFF725FF002888D1012278
:10C0D000237BE272CCE700BFF7001700B0DF7047A8
:10C0E00066DF704760B159B10378DE2B0AD009686A
:10C0F0004160DE224FF6FF730270438000207047DC
:10C100000E2070470820704738B10378DE2B02D12B
:10C11000418000207047082070470E20704700BF04
:10C12000F9B170B5054684B050B10B78DE2B0C46E2
:10C1300006D180884B88984214D02B88012B01D0DF
:10C1400004B070BD2E7A012EFAD16388A888984277
:10C15000F6D126720021FFF7C3FF00284DD12072CF
:10C16000EEE770470B7AEBB92B88112B31D0512BAE
:10C17000E4D1AB79022BE3D1AA7B02F0FD010429C3
:10C180002ED0052ADCD100226946C1E901220092A5
:10C19000CA608DF80030FFF7A1FF0028D0D0636897
:10C1A0009847CDE70021FFF79BFF0346B0B1112868
:10C1B00013D0636898472B88112B06D0512BBDD123
:10C1C000A88863888342D4D0BAE7AA8863889A4251
:10C1D000B6D14FF6FF736380B2E701232372EAE71B
:10C1E00069460022C1E901220092CA604FF4C07280
:10C1F0008DF80030ADF80420CDE7112804D0636835
:10C2000004B0BDE870401847267299E7A8DF704770
:10C21000ADDF7047AEDF704762DF704700295AD04C
:10C2200070B504468AB038B10388502B0D4653D000
:10C23000572B39D0102B01D00AB070BD81886869A6
:10C24000002601AA0196FFF7FDFC082231460DEBFE
:10C25000020001F079F802232989A088CDF80CD0DA
:10C2600002AA0293FFF7D4FF0028E5D1AB69002BA7
:10C27000E2D00398FFF710FD0028DDD0019B0BB141
:10C2800001221A701822002104A801F05DF8A1888B
:10C29000019A02238DF81030AB690595ADF818109E
:10C2A000079204A89847C7E78188686902AAFFF740
:10C2B000C9FC0028C0D1029B1B78002BBCD0AB6905
:10C2C000002BB9D00146182204A801F03DF8A1883E
:10C2D000029A0123DEE770478188686902AAFFF7A6
:10C2E000B1FC1822002104A801F02EF8E388298966
:10C2F000A288ADF818209942029A0595079210D0AD
:10C30000AA899A4298D1AB69002B95D0228AADF8C0
:10C310002420002112348DF81010089404A89847A6
:10C320008AE7268A022EEBD1002A85D004F112007A
:10C33000FFF7B2FC029B38B101221A70AB698DF88D
:10C340001060002BADD177E703261870F6E700BF29
:10C35000F0B5364B0D4604460FCB8FB00DF1080CEF
:10C360008CE80F00002C5ED0002D5CD02B68A36100
:10C3700021466046FFF750FF08B10FB0F0BD2246DE
:10C38000012512F8023B8DF8063001A92846ADF8C8
:10C390000450FFF73BFF0028EFD10146202206A8FA
:10C3A00000F0D2FF22460223ADF8183012F80C3B01
:10C3B0008DF81A30BDF824301D4E6088079623F49E
:10C3C0004F6323F00F0343F440632B4340F2011704
:10C3D00006A9ADF82430ADF82970FFF761FC0028FC
:10C3E000CBD10146202206A800F0AEFFBDF82430D4
:10C3F0006088079623F4875323F01F03224643F4F3
:10C4000080532B43ADF8243012F8043B8DF81A30DA
:10C4100006A90323ADF829708DF82B50ADF818301C
:10C42000FFF73EFCA9E70E200FB0F0BD00DB0200D5
:10C43000F400010060B3F0B587B00E46174604461D
:10C4400001AA406919461D46FFF7FCFBD8B94FF613
:10C45000FF739D4219D0019BBBB11B78EBB13B88A8
:10C46000F42B17D80146102202A800F06DFFA38814
:10C47000ADF8083002A901232846CDE904768DF8ED
:10C480000A30FFF7C7FE07B0F0BD052007B0F0BDCA
:10C490000E207047072007B0F0BD0820F3E700BF6B
:10C4A00010DF704770B53D4D2B7884B0002B67D1FD
:10C4B0003B4E3C49012302A83370FCF74DF8039B27
:10C4C00023B90FE0FCF752F8039B5BB1D3E90031CD
:10C4D00000209847034602A8002BF3D11C462046B3
:10C4E00004B070BD304902A8FCF736F8039B4BB18D
:10C4F000D3E900310020984702A8FCF737F8039BE6
:10C50000002BF5D1294B00221B68019302A88DF85E
:10C510000820FBF77BFD264901A8FFF7C1FFB0FA11
:10C5200080F304465B099DF808002B70FBF794FD2F
:10C53000002CD4D11F4B20491C70347091F8162365
:10C54000EC2352091341DB071ED51C4B9A6802B33A
:10C550001A6842F480021A60134902A8FBF7FCFF34
:10C56000039B002BBBD0D3E900310120984702A8E0
:10C57000FBF7FCFF039B002BF5D1204604B070BDF8
:10C580000824204604B070BD42F20200FBF7BEF85A
:10C59000E2E74FF480030B60DEE700BF9536002032
:10C5A0009436002014DB02002CDB020010DB0200BA
:10C5B0002D7702009636002000E100E0242D0020B7
:10C5C000014B1878704700BF9536002000B583B046
:10C5D00008496846FBF7C0FF019B43B1D3E900203F
:10C5E00090476846FBF7C2FF019B002BF6D103B0D2
:10C5F0005DF804FB20DB020060DF704769DF7047F5
:10C6000061DF704730B5154DADF5017D4FF4FA741B
:10C610000DF1020103A8ADF80240FFF7F1FF88B960
:10C62000294601A8FBF798FF029B002BF0D0D3E925
:10C63000003103A8984701A8FBF798FF029B002B45
:10C64000F5D1E5E7052802D10DF5017D30BD0DF5E9
:10C65000017DBDE83040FBF759B800BF38DB020070
:10C66000024B1B780BB1FFF7CDBF70479736002008
:10C67000002961D0F0B5314B0B6085B00C46064601
:10C680000C22002101A800F05FFE0127062322688A
:10C69000ADF8083001A920208DF804608DF80670EF
:10C6A000FFF7ACFF0C22002101A800F04DFE002591
:10C6B0002268ADF8057001A940208DF80750FFF7FA
:10C6C0009DFF29460C2201A800F03EFEF7232268B8
:10C6D000ADF8063001A923208DF80460FFF78EFF26
:10C6E00029460C2201A800F02FFE22688DF8047064
:10C6F00001A93846FFF782FF29460C2201A800F065
:10C7000023FE4FF4B0632268019301A9A120FFF733
:10C7100075FF29460C2201A800F016FE9DF8043092
:10C72000226865F3000301A9A0208DF80430FFF70B
:10C7300065FF284605B0F0BD0E207047E82A0020AE
:10C7400008B5FFF759FF10B9014B01221A7008BD57
:10C75000973600204BDF704710B5124C84B001A80B
:10C76000FFF7F8FFA8B9214602A8FBF7F5FE039BE7
:10C77000002BF4D0D3E900310198984702A8FBF7C9
:10C78000F5FE039B002BF5D101A8FFF7E3FF00287E
:10C79000E9D0052801D104B010BD04B0BDE81040B7
:10C7A000FAF7B4BF44DB020008B5064B044613B1E8
:10C7B0000021AFF30080044B1B6803B1984720466B
:10C7C00000F0B0FF00000000D037002070B50D4D24
:10C7D0000D4C641BA4100026A64209D10B4D0C4C35
:10C7E00001F020F9641BA4100026A64205D170BDFB
:10C7F00055F8043B98470136EEE755F8043B984757
:10C800000136F2E7102C0020102C0020102C002004
:10C81000142C00200FB407B5064904AB086853F880
:10C82000042B8168019300F031F803B05DF804EB4C
:10C8300004B07047002C00209368013B002B10B41B
:10C84000936008DA9469A34201DB0A2903D15DF8F9
:10C85000044B00F035B91368581C10601970084675
:10C860005DF8044B7047F8B506460F461446D518D8
:10C87000AC4201D1002007E014F8011B3A463046D3
:10C88000FFF7DAFF431CF3D1F8BD00002DE9F04FAC
:10C890000D469DB014469846064618B1036A0BB97A
:10C8A00000F0C6FC6B6ED90705D4AB899A0502D49B
:10C8B000A86D00F09DFDAB891B0701D52B699BB9C5
:10C8C0002946304600F03AF970B16B6EDC0704D5AA
:10C8D0004FF0FF301DB0BDE8F08FAB899805F7D45D
:10C8E000A86D00F086FDF3E70023099320238DF85F
:10C8F0002930CDF80C803023DFF8B0818DF82A3054
:10C900004FF0010923469A4613F8012B0AB1252A54
:10C91000F9D1BAEB040B0BD05B46224629463046D0
:10C92000FFF7A1FF013000F0A980099A5A4409924B
:10C930009AF80030002B00F0A18000234FF0FF3266
:10C94000CDE905230AF1010A049307938DF85330CA
:10C950001A935446052214F8011B544800F088FB32
:10C96000049AD8B9D10644BF20238DF85330130759
:10C9700044BF2B238DF853309AF800302A2B15D062
:10C98000079A544600204FF00A0C214611F8013B4B
:10C99000303B092B4DD9B0B1079214E0A0EB08034E
:10C9A00009FA03F313430493A246D2E7039B191D2C
:10C9B0001B680391002BBBBF5B4242F0020207934E
:10C9C0000793B8BF049223782E2B0CD163782A2BBF
:10C9D00034D1039B1A1D1B680392002BB8BF4FF084
:10C9E000FF3302340593DFF8D4A0217803225046A8
:10C9F00000F03EFB38B1049BA0EB0A0040228240CD
:10CA000013430134049314F8011B29488DF82810AE
:10CA1000062200F02DFB00283FD0264B1BBB039BBA
:10CA2000073323F0070308330393099B3B4409931F
:10CA300068E70CFB02320C460120A6E70023013414
:10CA4000059319464FF00A0C204610F8012B303A96
:10CA5000092A03D9002BC6D00591C4E70CFB01219C
:10CA600004460123F0E703AB00932A46124B04A9C6
:10CA70003046AFF300800746781CD6D16B6ED907DD
:10CA800005D4AB899A0502D4A86D00F0B2FCAB893D
:10CA90005B063FF51DAF09981CE703AB00932A46E0
:10CAA000054B04A9304600F00FF9E4E750DB020023
:10CAB0005ADB02000000000067C8020056DB0200DB
:10CAC000F8B50E461446054618B1036A0BB900F0D6
:10CAD000AFFBA369A360A3891A0725D523691BB3FC
